:020000040800F2
:1000000050340120F902000801030008030300082E
:1000100005030008070300080903000800000000AA
:10002000000000000000000000000000390200088D
:100030000D03000800000000950200085D0D000897
:100040001303000813030008130300081303000838
:100050001303000813030008130300081303000828
:100060001303000813030008130300081303000818
:100070001303000813030008130300081303000808
:1000800013030008130300081303000813030008F8
:1000900013030008130300081303000813030008E8
:1000A00013030008130300081303000813030008D8
:1000B00013030008130300081303000813030008C8
:1000C00013030008130300081303000813030008B8
:1000D00013030008130300081303000813030008A8
:1000E0001303000813030008130300081303000898
:1000F0001303000813030008130300081303000888
:100100001303000813030008130300081303000877
:100110001303000813030008130300081303000867
:100120001303000813030008130300081303000857
:100130001303000813030008130300081303000847
:100140001303000813030008130300081303000837
:100150001303000813030008130300081303000827
:100160001303000813030008130300081303000817
:100170001303000813030008130300081303000807
:10018000130300081303000800F002F800F044F81D
:100190000AA090E8000C82448344AAF10107DA45E2
:1001A00001D100F039F8AFF2090EBAE80F0013F0F0
:1001B000010F18BFFB1A43F001031847B42B0000CE
:1001C000D42B0000103A24BF78C878C1FAD852075F
:1001D00024BF30C830C144BF04680C6070470000C1
:1001E0000023002400250026103A28BF78C1FBD840
:1001F000520728BF30C148BF0B607047642900F028
:100200000F81732900F04782002070471FB502F06C
:10021000A9FD1FBD10B510BD00F095FA1146FFF7FE
:10022000F5FF00F0A1FE00F0B3FA03B4FFF7F2FF10
:1002300003BC00F0BBFA00002C4B19680868B0E85A
:10024000F04F80F30988BFF36F8F4FF0000080F309
:10025000118870470000000008480068006880F3BB
:1002600008884FF0000080F3148862B661B6BFF3CF
:100270004F8FBFF36F8F00DF00BF00BF08ED00E0BE
:10028000DFF80C00016841F470010160704700BFA5
:1002900088ED00E0EFF30980BFF36F8F134B1A680E
:1002A0001EF0100F08BF20ED108A20E9F04F1060FB
:1002B00009B44FF0500080F31188BFF34F8FBFF3A4
:1002C0006F8F01F0D1FE4FF0000080F3118809BC60
:1002D00019680868B0E8F04F1EF0100F08BFB0ECC6
:1002E000108A80F30988BFF36F8F70472C000020BD
:1002F000EFF3058070470000094880470948004730
:10030000FEE7FEE7FEE7FEE7FEE7FEE7FEE7FEE7C5
:10031000FEE7FEE704480549054A064B7047000022
:10032000910D000889010008502E01205034012051
:1003300050300120503001200FB41CB5084B06AAE4
:100340007B4469460090059800F07BF90446002044
:10035000694600F089F920461CBC5DF814FB0000DA
:10036000250300002DE9F0410E46044600202062DE
:100370002046E168884730B3252805D0D4E901211B
:100380009047206A401CF2E7E16820460027884732
:10039000050018D0A5F14100192802D820354FF4E6
:1003A00000673246294620462760FFF727FF40B105
:1003B000012804D0F61D26F007060836D8E7361DBA
:1003C000D6E72846DAE7206ABDE8F08170B50C462A
:1003D0000546012A05D02878800600D5EA69002361
:1003E00002E0012305E05B1C934202D2E05C00289E
:1003F000F9D1A869E618C01AA861286A18442862C9
:100400002846AFF3008004E0D5E9012114F8010B80
:100410009047B442F8D32846AFF3008070BD000087
:100420002DE9F0410646002410687529314616A5CD
:1004300010D0AFF30080002802DA404213A507E095
:1004400031688A0701D512A502E0490704D511A534
:10045000012401E0AFF3008000210A2206F1240705
:1004600009E0B0FBF2FCB0FBF2F302FB1C00303001
:1004700078541846491C0028F3D123462A463046B2
:10048000BDE8F04100F07FB8000000002D00000042
:100490002B00000020000000032A40F2308010F002
:1004A000030C00F0158011F8013BBCF1020F62440F
:1004B00098BF11F801CB00F8013B38BF11F8013BA0
:1004C000A2F1040298BF00F801CB38BF00F8013B4D
:1004D00011F0030300F0E380083AC0F0088051F8FF
:1004E000043B083A51F804CBA0E80810F5E7121DC8
:1004F0005CBF51F8043B40F8043BAFF30080D207E7
:1005000024BF11F8013B11F801CB48BF11F8012BB2
:1005100024BF00F8013B00F801CB48BF00F8012BD5
:10052000704702F0FF0343EA032242EA024200F06E
:10053000EAB84FF0000200B51346944696462039BB
:1005400022BFA0E80C50A0E80C50B1F12001BFF48C
:10055000F7AF090728BFA0E80C5048BF0CC05DF8F2
:1005600004EB890028BF40F8042B08BF704748BF40
:1005700020F8022B11F0804F18BF00F8012B7047B4
:100580007047704770472DE9F0470D4699469246EF
:10059000044600F124080168880604D5E06921F0CA
:1005A0001001216000E00120A84201DD471B00E0AE
:1005B0000027A1697A1902EB0900081AA0612078C6
:1005C000C00602D42046AFF30080002608E0D4E93C
:1005D00001211AF806009047206A401C761C206210
:1005E0004E45F4DB2078C0060AD52046AFF30080E4
:1005F00006E0D4E9012130209047206A401C2062A7
:10060000381EA7F10107F4DC07E0D4E9012118F84E
:1006100005009047206A401C2062281EA5F10105B4
:10062000F3DC2046AFF300802078000602D50220DC
:10063000BDE8F0870120FBE701694A1C02610878E8
:10064000704700B58FB0CDE9013100210591054912
:100650007944CDE9031011466846FFF783FE0FB0D9
:1006600000BD0000E5FFFFFF0A6802F8010B0A6009
:10067000704710B5436913B1AFF3008001E0FFF795
:10068000A5FE012010BD127800F124010A7000229D
:100690004A700122EDE711684FF0FF32E9E710B52B
:1006A000203AC0F00B80B1E81850203AA0E818506A
:1006B000B1E81850A0E81850BFF4F5AF5FEA027C2B
:1006C00024BFB1E81850A0E8185044BF18C918C09A
:1006D000BDE810405FEA827C24BF51F8043B40F83B
:1006E000043B08BF7047D20728BF31F8023B48BF20
:1006F00011F8012B28BF20F8023B48BF00F8012B5E
:1007000070474FF000020429C0F0128010F0030C73
:100710003FF411AFCCF1040CBCF1020F18BF00F88C
:10072000012BA8BF20F8022BA1EB0C01FFF703BFA0
:100730005FEAC17C24BF00F8012B00F8012B48BF01
:1007400000F8012B7047754600F02CF8AE46050006
:100750006946534620F00700854618B020B5FFF7DC
:10076000D9FDBDE820404FF000064FF000074FF0E4
:1007700000084FF0000B21F00701AC46ACE8C009BF
:10078000ACE8C009ACE8C009ACE8C0098D467047C8
:1007900010B50446AFF300802046BDE81040FFF7D7
:1007A00044BD000000487047EC2D0120014918208D
:1007B000ABBEFEE726000200704710B56321202083
:1007C00000F01CFA4821242000F018FA10BDF0B502
:1007D0000A4600210023002400BF3DE0012505FA60
:1007E00001F3156805EA03049C4234D105684F0003
:1007F0000326BE40B543056015794E00B540066836
:10080000354305601579012D02D01579022D16D1D9
:1008100085684F000326BE40B543856055794E007C
:10082000B540866835438560456801268E40B543EE
:100830004560456896798E40B6B235434560C568D7
:100840004F000326BE40B543C560D5794E00B54084
:10085000C6683543C560491C1029BFD3F0BDF0B54B
:10086000002300244D07ED0E02FA05F3CE1000F12F
:10087000200555F826504E07F70E0F26BE40B5430B
:10088000CF1000F1200646F82750CE1000F12005C9
:1008900055F8265045EA0304CE1000F1200545F82E
:1008A0002640F0BD418370471CB50121084600F089
:1008B0005FF8E020009002208DF8040000208DF801
:1008C00006008DF8070069461348FFF780FF0522F0
:1008D00011461148FFF7C3FF052206210E48FFF716
:1008E000BEFF052207210C48FFF7B9FF01211020A8
:1008F00000F03EF80820009001208DF80400002050
:100900008DF8060069460548FFF761FF0821034896
:1009100000F006F81CBD000000000240001002407C
:10092000018370471CB50121084600F021F8022020
:100930008DF8040000208DF80600042000900220AD
:100940008DF8050069460448FFF741FF07220221A0
:100950000148FFF784FF1CBD0000024010B5FFF7FF
:10096000A3FF00F0B5F8FFF7DDFF00F045FA10BD7A
:1009700029B1064A12680243044B1A6004E0034A94
:1009800012688243014B1A60704700003038024001
:1009900029B1064A12680243044B1A6004E0034A74
:1009A00012688243014B1A607047000040380240D1
:1009B00029B1064A12680243044B1A6004E0034A54
:1009C00012688243014B1A607047000044380240AD
:1009D000F0B5002100220024022500260223324F18
:1009E0003F6807F00C0121B1042905D0082937D14F
:1009F00005E02E4F076036E02D4F076033E02A4FA9
:100A00003F1F3F68C7F38056274F3F1F3F6807F0DF
:100A10003F036EB1264FB7FBF3F7DFF88CC0ACF1A4
:100A2000040CDCF800C0CCF3881C07FB0CF40CE0D1
:100A30001E4FB7FBF3F7DFF870C0ACF1040CDCF825
:100A400000C0CCF3881C07FB0CF4174F3F1F3F6816
:100A5000C7F301477F1C7D00B4FBF5F7076002E098
:100A6000124F076000BF00BF0F4F3F6807F0F00153
:100A70000909104F7A5C0768D74047600A4F3F6802
:100A800007F4E051890A0B4F7A5C4768D7408760CA
:100A9000054F3F6807F46041490B064F7A5C476891
:100AA000D740C760F0BD0000083802400024F400C1
:100AB00000127A009800002021B1028842F0400222
:100AC000028004E002884FF6BF731A40028070472C
:100AD00000B585B001210803FFF76AFF0020ADF8DB
:100AE00000004FF48270ADF802000020ADF8040061
:100AF0000220ADF806000120ADF808004002ADF874
:100B00000A000020ADF80C00ADF80E000720ADF88B
:100B100010006946044800F017F801210248FFF769
:100B2000CBFF05B000BD00000030014002460020B0
:100B300013890B400BB1012000E0002070470146F3
:100B4000888970478181704710B50022028802F4BD
:100B500041520B884C8823438C882343CC88234301
:100B60000C8923434C8923438C892343CC89234319
:100B70001A430280838B4FF2FF74234083830B8AD6
:100B8000038210BD10B5044608211A48FFF78AFEFB
:100B900044F0800400BF02211748FFF7C7FF002878
:100BA000F9D021461448FFF7CDFF00BF01211248BC
:100BB000FFF7BCFF0028F9D00F48FFF7C0FF00BFC8
:100BC00002210D48FFF7B2FF0028F9D000210A48A2
:100BD000FFF7B8FF00BF01210748FFF7A7FF002874
:100BE000F9D008210348FFF79BFE0348FFF7A7FF52
:100BF000C0B210BD001002400030014070B5044684
:100C00000D4608211848FFF74DFE00BF0221174886
:100C1000FFF78CFF0028F9D021461448FFF792FF18
:100C200000BF01211148FFF781FF0028F9D00F48CC
:100C3000FFF785FF00BF02210C48FFF777FF002870
:100C4000F9D029460948FFF77DFF00BF0121074879
:100C5000FFF76CFF0028F9D00448FFF770FF082168
:100C60000148FFF75DFE70BD0010024000300140FA
:100C70000CB50020019000903448006840F48030AA
:100C80003249086000BF3148006800F4003000902D
:100C90000198401C0190009818B90198B0F5A04F38
:100CA000F1D12A48006800F4003010B10120009012
:100CB00001E0002000900098012846D123484030F0
:100CC000006840F0805021494031086020480068A9
:100CD00040F440401E4908601C48083000681B4929
:100CE000083108600846006840F400400860084683
:100CF000006840F4A05008601648091F0860081FEB
:100D0000006840F08070091F086000BF0F4800684D
:100D100000F000700028F9D040F205700E4908601C
:100D20000A480830006820F00300084908310860CC
:100D30000846006840F00200086000BF0348083021
:100D4000006800F00C000828F8D10CBD0038024003
:100D50000070004019544007003C024010B500BF2D
:100D6000502080F31188BFF34F8FBFF36F8F00BF08
:100D700001F0ACFD18B14FF080500449086000BF8D
:100D8000002080F3118800BF10BD000004ED00E0DA
:100D900010B51548006840F4700013490860134806
:100DA000006840F001001149086000200F49083137
:100DB00008600E4800680E4908400C4908600D485C
:100DC000091D0860081F006820F48020091F0860C2
:100DD000002006490C310860FFF74AFF4FF0006021
:100DE00001498039086010BD88ED00E000380240FC
:100DF000FFFFF6FE103000241FB501214804FFF765
:100E0000C7FD4FF4165000900020ADF80C000820EC
:100E1000ADF80A000020ADF80800ADF80600ADF806
:100E200004006946034800F031F80121014800F050
:100E300013F81FBD0044004010B5044600BF402118
:100E4000044800F015F80028F9D02146014800F0C8
:100E500087F810BD0044004021B1828942F400525D
:100E6000828104E082894DF6FF731A4082817047C7
:100E700002460020B1F5007F00D100BF13880B406F
:100E80000BB1012000E00020704700002DE9FF4772
:100E900005460E460024A14600BFA046B08900B119
:100EA00000BF2C8A24F44054F08804432C82AC897F
:100EB00041F20C608443B08831890843718908434A
:100EC0000443AC81AC8A24F44074B0890443AC82FE
:100ED0006846FFF77DFD2048854202D01F488542C5
:100EE00002D1DDF80C9001E0DDF80890A88900F44B
:100EF000004040B109EBC90000EB0910316849001E
:100F0000B0FBF1F707E009EBC90000EB091031680D
:100F10008900B0FBF1F76420B7FBF0F00401200971
:100F2000642101FB1078A88900F4004040B1322010
:100F300000EBC800B0FBF1F000F00700044308E04C
:100F4000322000EB08106421B0FBF1F000F00F003C
:100F500004432C81BDE8FF870010014000140140CC
:100F6000C1F30802828070471CB5FFF7F7FC00222E
:100F70000221012001F0A2F90C49086000200221A1
:100F800003468222CDE9001009A10B4801F058FC6C
:100F90000020012103468222CDE9001007A10A4862
:100FA00001F04EFC01F00EF800BFFEE794000020B7
:100FB0004745545F58590000F51E000844495350F6
:100FC0004C41595F58590000BD1E00083EB504460B
:100FD0000DA194F901000DA2CDE90020029194F930
:100FE00000300BA20BA10F48FFF7A6F90E490870BD
:100FF000002504E00B49485DFFF71EFF6D1C0A4801
:1010000000788542F6DB3EBD0A0D0000793A00000B
:10101000783A000025732564202025732564257304
:1010200000000000D82D0120900000202DE9F041A3
:1010300005460E461C4807681C480068001D00F065
:101040009BFD50B91948006890F82C100120884089
:1010500017490968814316480160681C38B936B1E0
:1010600012480168091D134800F0C8FD1AE07C19F8
:101070000E4800684460BC4207D20C480168091D54
:101080000D48006800F0A0FD0CE008480168091D4B
:101090000A48006800F098FD09480068844201D2BF
:1010A00007480460BDE8F081400000202C000020CB
:1010B000440000209C2D012034000020300000203E
:1010C0005C00002010B5044600F0A4FD2448006830
:1010D000401C234908602348006840B92148046047
:1010E0000846006801280DD100F0D8F90AE01E4832
:1010F000006838B91B480068C06AE16A884201D8B4
:101100001848046019480068401C184908600846DF
:101110000068206494F82C10012088401449096864
:10112000084313490860E16A01EB8101114A02EBAF
:101130008100211D00F062FD00F096FD0A48006864
:1011400068B108480068C06AE16A884207D24FF077
:10115000805009490860BFF34F8FBFF36F8F10BDF8
:101160003C0000202C0000204800002058000020F7
:1011700044000020E82C012004ED00E010B500F050
:1011800049FD10480068D0B90F4800F00DFD0F4828
:1011900000F00AFD0C480E4908600C480D49086033
:1011A00000220C210A2001F089F80649086008464F
:1011B000006820B108A10348006800F015FE00F0A7
:1011C00053FD10BD70000020B02D0120C42D012062
:1011D000680000206C000020546D72510000000077
:1011E00010B516E000F016FD0C48C068C468201D5C
:1011F00000F0C2FC0A480068401E0949086009481E
:101200000068401E0749086000F02EFD204600F0EF
:101210005FF8044800680028E4D110BD882D012043
:101220003C0000203800002070B504460D46206CBC
:1012300070B1216CE0680144E160D4E90210884299
:1012400001D32168E1602846226CE168FFF724F9A8
:1012500070BD2DE9F04104460F4615464FF00008D9
:10126000A66B206C48B9206800282CD1A06801F03A
:10127000D9FB80460020A06025E07DB93946226C6C
:101280006068FFF709F9216C606808446060D4E980
:101290000101884217D32068606014E03946226C4F
:1012A000E068FFF7F9F8216CE068411AE160216815
:1012B000E068884203D2216CA068411AE160022DE7
:1012C00001D106B1761E701CA0634046BDE8F081D6
:1012D00010B50446206B00F0E5FC204600F0E2FC6F
:1012E00010BD00000146084A126812680AB90122BE
:1012F00000E000220A600A6822B9034A1268D26834
:10130000106800E0002070476800002030B54FF4FE
:101310009633174800F007042CB1C01D20F00700D9
:10132000134C041B1B1B0246124C22600024114D5F
:101330006C60D018083820F007000F4C20600024A3
:101340000D4D2D686C600C4D2D682C601146441AB3
:101350004C60094C24680C60084D4C682C60084DAA
:101360004C682C604FF00044064D2C6030BD0000EE
:10137000A80000200000002008000020100000202D
:101380000C0000201C00002000BFFFF729FF0748C9
:101390000068012807D94FF0805005490860BFF365
:1013A0004F8FBFF36F8F00F0FBFBEEE7E82C0120BF
:1013B00004ED00E02DE9F04106460D46174698463B
:1013C000069C0DB9246000E02760E66325640121D6
:1013D000204600F09DFF84F84C80BDE8F0812DE9A7
:1013E000F05F82460E4690469B460A9F0C9C4FEA51
:1013F0008801A522206BFFF794F8A8F10100216B6A
:1014000001EB800929F0070909F0070008B901205C
:1014100000E0002050B900BF502080F31188BFF3D6
:101420004F8FBFF36F8F00BF00BFFEE786B100256F
:1014300007E0715D04F134004155705D00B902E0D0
:101440006D1C0A2DF5D300BF00213D20015502E09F
:10145000002084F83400052F00D30427E762A76436
:101460000020E064201D00F0ACFB04F1180000F047
:10147000A8FB2461C7F10500A0616462002020651B
:1014800084F854005A465146484600F05FFB2060FD
:101490000B9808B10B980460BDE8F09F10B50024CC
:1014A00007E004EB84010F4A02EB810000F07CFBB3
:1014B000641C052CF5D30C4800F076FB0B4800F0BB
:1014C00073FB0B4800F070FB0A4800F06DFB0A4804
:1014D00000F06AFB044809490860044808490860AC
:1014E00010BD0000E82C01204C2D0120602D0120B2
:1014F000742D0120882D01209C2D0120300000201A
:101500003400002010B50146164800E0006803686A
:101510008B42FBD30246436813448B4204D1436899
:101520004C682344436001460A464B6813440468F0
:10153000A34211D10C4C03682468A34208D04B6825
:101540000468646823444B6003681B680B6005E013
:10155000054B1B680B6001E003680B60884200D0FC
:10156000016010BD00000020080000202DE9F041BE
:1015700004460D4616461F464FF00008656024617C
:10158000B5420CD8F01BA169884202D34FF0010884
:1015900011E0211D0948006800F016FB0BE0BE4277
:1015A00004D2BD4202D34FF0010804E0211D0448DB
:1015B000006800F009FB4046BDE8F0816C000020A7
:1015C0006800002070B5054600F024FBA86B08B940
:1015D000012400E0002400F047FB204670BD70B5F8
:1015E000054600F017FBA86BE96B884201D1012486
:1015F00000E0002400F038FB204670BDF8B5054639
:101600000F461A480068C068C468201D00F0B4FA8C
:1016100094F8280000F00400E8B1A06941192B46B5
:101620003A462046FFF7A2FFD8B1002003462A46DB
:1016300001460090204601F053FB064656B900BF14
:10164000502080F31188BFF34F8FBFF36F8F00BF1F
:1016500000BFFEE705E094F8280020F0010084F8C0
:1016600028002046216A8847F8BD00006800002055
:1016700070B586B08BE003980028FBDB059C6069A1
:1016800008B9012000E0002010B9201D00F074FA14
:1016900002A800F0DDF8054603980A2875D2DFE8B5
:1016A00000F009050739416306083A4200BF00BF50
:1016B00000BF00BF94F8280040F0010084F8280023
:1016C0000498A269811803462A462046FFF74EFF78
:1016D000F8B12046216A884794F8280000F00400F9
:1016E000B8B1002000900498A1694218002319465F
:1016F000204601F0F5FA064656B900BF502080F3A7
:101700001188BFF34F8FBFF36F8F00BF00BFFEE79D
:1017100000BF3BE000BF94F8280020F0010084F8EF
:10172000280033E000BF94F8280040F0010084F85E
:1017300028000498A061A06908B1012000E0002001
:1017400050B900BF502080F31188BFF34F8FBFF313
:101750006F8F00BF00BFFEE7A06941192B462A46E4
:101760002046FFF703FF11E094F8280000F0020084
:1017700018B9204600F096FA05E094F8280020F009
:10178000010084F8280001E0FFE700BF00BF00224D
:1017900003A90448006800F059FF00287FF46BAFEC
:1017A00006B070BD70000020F8B505460C4600F08C
:1017B00053FC684600F04CF80646009820BB44B93C
:1017C000B54206D801F0DEF931462846FFF716FF8C
:1017D0001CE03CB10E480068006808B9012000E038
:1017E00000200446A91B22460A48006800F012FBAC
:1017F00001F0C8F950B94FF0805007490860BFF3B5
:101800004F8FBFF36F8F01E001F0BCF9F8BD00000E
:101810006C0000207000002004ED00E00A49096817
:10182000096809B9012100E0002121B14FF0FF3121
:10183000064A116006E004490968C968C868034A95
:101840004168116070470000300000205C000020FB
:1018500070B5044601F034F8054607480068854233
:1018600004D200F00BF80120206001E0002020608D
:1018700001480560284670BD780000202DE9F84336
:1018800034E025480068C068056823480068C068DF
:10189000C468201D00F070F92046216A884794F83A
:1018A000280000F0040008B3A0694619AE4207D929
:1018B00066602461211D1848006800F085F915E074
:1018C000002003462A4601460090204601F008FA0F
:1018D000074657B900BF502080F31188BFF34F8FE0
:1018E000BFF36F8F00BF00BFFEE700BF0A4800686C
:1018F000006808B9012000E000200028C1D0064897
:10190000D0F8008005480068034908600348C0F823
:101910000080BDE8F8830000680000206C00002013
:101920000E480068401C08B9012000E0002050B9B2
:1019300000BF502080F31188BFF34F8FBFF36F8F2C
:1019400000BF00BFFEE700BF502080F31188BFF347
:101950004F8FBFF36F8F00BF00BFFEE72000002056
:1019600008B500BF6846FFF7BDFC04462046009955
:10197000FFF71AFFFFF77CFEF4E770B5044600F0AE
:1019800049F994F9455010E0606A08B9012000E077
:10199000002038B904F1240001F0A8F818B100F0D3
:1019A000CFFA00E003E0681E45B2002DECDC00BF7A
:1019B000FF2084F8450000F057F900F02BF994F966
:1019C000445010E0206908B9012000E0002048B927
:1019D00004F1100001F08AF808B100F0B1FA681EB5
:1019E00045B200E001E0002DECDC00BFFF2084F8F0
:1019F000440000F039F970BD2DE9F04104464FF084
:101A0000000800F029FB4B48006808B9FFF77EFC8E
:101A1000494800682040002870D1D4B1083404F04F
:101A20000700B0B104F00700C0F10800044404F05E
:101A3000070008B9012000E0002050B900BF502085
:101A400080F31188BFF34F8FBFF36F8F00BF00BFCC
:101A5000FEE7002C52D03948006884424ED8384EF8
:101A60003046056801E02E462D686868A04202D223
:101A700028680028F7D12F48006885423ED030689A
:101A800000F10808286830606868001B102819D920
:101A90002F1907F0070008B9012000E0002050B915
:101AA00000BF502080F31188BFF34F8FBFF36F8FBB
:101AB00000BF00BFFEE76868001B78606C603846B6
:101AC000FFF720FD1D4968680968081A1B4908606E
:101AD000084600681B490968884203D21748006815
:101AE000184908601449686809680843686000205C
:101AF000286015480068401C1349086001F042F84E
:101B0000B8F1000F01D100F04CF808F0070008B957
:101B1000012000E0002050B900BF502080F3118860
:101B2000BFF34F8FBFF36F8F00BF00BFFEE740468C
:101B3000BDE8F081080000201C0000200C000020FF
:101B4000000000201000002014000020001F4FF0B3
:101B500080730360001F21F001030360001F054B29
:101B6000036014380260001F6FF002030360203826
:101B7000704700002119000801460A69D1E90130C7
:101B80009860D1E9010358605068884201D18868A3
:101B90005060002008611068401E10601068704797
:101BA000704770477047704700F1080141604FF07F
:101BB000FF31816000F10801C16001610021016015
:101BC000704700210161704710B502460B685C1C2C
:101BD0000CB9106907E002F1080000E040684468B1
:101BE00024689C42FAD944684C604C68A1608860C3
:101BF00041600A611468641C146010BD42684A6048
:101C000093688B60936859609160086103685B1CFE
:101C10000360704700BF502080F31188BFF34F8FDF
:101C2000BFF36F8F00BF0E480068401C0C4908606E
:101C300008460068012812D10A480068C0B208B9F5
:101C4000012000E0002050B900BF502080F311882F
:101C5000BFF34F8FBFF36F8F00BF00BFFEE770472A
:101C60002000002004ED00E00D48006850B900BFDE
:101C7000502080F31188BFF34F8FBFF36F8F00BFE9
:101C800000BFFEE706480068401E05490860084698
:101C9000006820B9002080F3118800BF00BF7047A2
:101CA0002000002070B506463546002E44D0083D81
:101CB0002C46224960680968084008B1012000E00C
:101CC000002050B900BF502080F31188BFF34F8F20
:101CD000BFF36F8F00BF00BFFEE7206808B9012087
:101CE00000E0002050B900BF502080F31188BFF3FE
:101CF0004F8FBFF36F8F00BF00BFFEE70F496068D3
:101D000009680840C0B12068B0B90C49606809682A
:101D10008843606000F0A0F90949606809680844D8
:101D2000074908602046FFF7EDFB06480068401CA5
:101D30000449086000F026FF70BD00001C00002070
:101D40000C0000201800002000204FF0E021086166
:101D50008861064800684FF47A71B0FBF1F0401ECC
:101D60004FF0E02148610720086170477C000020A7
:101D700070B5FEF7BDFA0446102C16D304F1E0202E
:101D800090F8F05315480078854201DB012000E00F
:101D9000002050B900BF502080F31188BFF34F8F4F
:101DA000BFF36F8F00BF00BFFEE70D48006800F46F
:101DB000E0600C490968884201D8012000E0002059
:101DC00050B900BF502080F31188BFF34F8FBFF38D
:101DD0006F8F00BF00BFFEE770BD00002400002031
:101DE0000CED00E028000020024600200BE0084B2C
:101DF00053F8303033B9064B43F8301003EBC003CF
:101E00005A6002E0401C0828F1D300BF7047000070
:101E1000A82C01202DE9F04105460E4617462C4618
:101E2000FFF7F8FE94F94400401C10B9002084F834
:101E3000440094F94500401C10B9002084F8450086
:101E4000FFF712FFA06B28B93A46314604F124008F
:101E500000F098F82046FFF790FDBDE8F081000003
:101E600070B504460025D4B11248006808B90120B5
:101E700000E0002050B900BF502080F31188BFF36C
:101E80004F8FBFF36F8F00BF00BFFEE700F0E4F895
:101E900000212046FFF7CAF800F074FE05463DB960
:101EA0004FF0805004490860BFF34F8FBFF36F8F2E
:101EB00070BD00006400002004ED00E008B500BF24
:101EC000002269460948006800F0C0FB6846FFF739
:101ED0007DF81420FFF7C4FF4FF0805004490860DC
:101EE000BFF34F8FBFF36F8FEAE70000940000202D
:101EF00004ED00E008B5FEF760FC00BF2920FEF706
:101F000041FE40B28DF800002B20FEF73BFE40B2B0
:101F10008DF8010000235A1E69460248006800F04F
:101F200043FAEBE794000020034909680160034984
:101F30000968416070470000540000204000002004
:101F400001200149086070475000002070B5044628
:101F50000D4654B900BF502080F31188BFF34F8F56
:101F6000BFF36F8F00BF00BFFEE70548016818315F
:101F70002046FFF729FE01212846FFF757F870BDDC
:101F80002C00002070B505460E46144655B900BF1A
:101F9000502080F31188BFF34F8FBFF36F8F00BFC6
:101FA00000BFFEE70648016818312846FFF726FE05
:101FB0000CB14FF0FF3621463046FFF737F870BDC1
:101FC0002C0000201CB51D4800210B468222CDE9C3
:101FD00000101BA11C4800F033FC0446012C02D168
:101FE00000F052FE0446012C15D100BF502080F3B2
:101FF0001188BFF34F8FBFF36F8F00BF4FF0FF30DB
:102000001249086001201249086000201149086047
:1020100000F08CF810E0601C08B1012000E0002006
:1020200050B900BF502080F31188BFF34F8FBFF32A
:102030006F8F00BF00BFFEE71CBD000060000020E6
:1020400049444C4500000000891300085C00002052
:10205000480000204000002002480068401C014960
:10206000086070476400002070B52B48006818B104
:1020700001202A4908604DE00020284908602848CE
:102080000068046B4FF0A5352068B0F1A53F0BD177
:102090006068B0F1A53F07D1A068B0F1A53F03D1BA
:1020A000E068B0F1A53F05D01D48016834310068F3
:1020B000FFF778FD1B480068B0FA80F0C0F11F01FF
:1020C00001EB8100184A52F8200008B1012000E01D
:1020D000002050B900BF502080F31188BFF34F8F0C
:1020E000BFF36F8F00BF00BFFEE701EB81020E4B15
:1020F00003EB820042685268426000F108024368C4
:10210000934202D14268526842604268D268044BEE
:102110001A6000BF70BD0000640000205000002065
:102120002C00002044000020E82C01201CB55C4855
:1021300000685C49884201D0012000E0002050B9CD
:1021400000BF502080F31188BFF34F8FBFF36F8F14
:1021500000BF00BFFEE7524800685249491E88424E
:1021600001D0012000E0002050B900BF502080F3D2
:102170001188BFF34F8FBFF36F8F00BF00BFFEE723
:102180004949084600780190FF200A461070084629
:10219000007800909DF8000000F0F0009DF800200D
:1021A000904201D1012000E0002050B900BF502032
:1021B00080F31188BFF34F8FBFF36F8F00BF00BF55
:1021C000FEE79DF8000000F05000384A107007202C
:1021D000374A106009E036480068401E344A1060F3
:1021E0009DF800004006000E00909DF8000000F0F1
:1021F00080008028EFD02E480068C0F10700042836
:1022000001D1012000E0002050B900BF502080F330
:102210001188BFF34F8FBFF36F8F00BF00BFFEE782
:1022200023480068C0F10700042801D1012000E024
:10223000002050B900BF502080F31188BFF34F8FAA
:10224000BFF36F8F00BF00BFFEE7194800680002B0
:10225000174A10601046008800F4E0601060124ACF
:10226000019810700E482030006840F470000C494E
:10227000203108600846006840F070400860FFF7B1
:1022800063FD00200B490860FDF7FAFF0A4800686B
:1022900040F0404008490860FDF7DEFF00201CBD0B
:1022A00000ED00E071C20F4100E400E024000020D6
:1022B000280000202000002034EF00E02DE9F84342
:1022C00005460E4617460DB1012000E0002050B92A
:1022D00000BF502080F31188BFF34F8FBFF36F8F83
:1022E00000BF00BFFEE705FB06F808F15000FFF74E
:1022F00083FB04464CB1A14609F150093B464A46CE
:10230000314628460094FFF755F82046BDE8F8838B
:1023100070B505460E462C4654B900BF502080F3D8
:102320001188BFF34F8FBFF36F8F00BF00BFFEE771
:10233000FFF770FCD4E90F12206801FB0200A060D7
:102340000020A06320686060E06B401E226C216862
:1023500000FB0211E160FF2084F8440084F845008E
:102360009EB9206908B9012000E00020A8B904F155
:10237000100000F0BBFB80B14FF0805009490860AD
:10238000BFF34F8FBFF36F8F07E004F11000FFF72B
:102390000BFC04F12400FFF707FCFFF765FC0120AC
:1023A00070BD000004ED00E02DE9FF4383B0064658
:1023B00088461D464FF00009344654B900BF5020EE
:1023C00080F31188BFF34F8FBFF36F8F00BF00BF43
:1023D000FEE7B8F1000F01D1206C08B9012000E040
:1023E000002050B900BF502080F31188BFF34F8FF9
:1023F000BFF36F8F00BF00BFFEE7022D02D1E06B7D
:10240000012801D1012000E0002050B900BF502078
:1024100080F31188BFF34F8FBFF36F8F00BF00BFF2
:10242000FEE700F03DFA08B9059808B9012000E080
:10243000002050B900BF502080F31188BFF34F8FA8
:10244000BFF36F8F00BF00BFFEE700BFFFF7E2FBE7
:10245000A06BE16B884201D3022D28D12A46414668
:102460002046FEF7F6FE0746606A08B9012000E044
:10247000002068B904F1240000F038FB88B14FF067
:10248000805032490860BFF34F8FBFF36F8F08E071
:102490003FB14FF080502D490860BFF34F8FBFF31D
:1024A0006F8FFFF7E1FB012007B0BDE8F0830598CF
:1024B00018B9FFF7D9FB0020F6E7B9F1000F04D1F6
:1024C00001A8FFF731FD4FF00109FFF7CDFBFFF742
:1024D000C3FDFFF79FFB94F94400401C10B9002096
:1024E00084F8440094F94500401C10B9002084F899
:1024F0004500FFF7B9FB05A901A800F05BF9F0B9A9
:102500002046FFF76CF8A0B104F110000599FFF721
:102510001DFD2046FFF731FA00F034FB002895D16D
:102520004FF0805009490860BFF34F8FBFF36F8FA2
:102530008CE72046FFF721FA00F024FB86E72046CF
:10254000FFF71BFA00F01EFB0020ADE704ED00E0F2
:102550002DE9F84F07468A4690461E463C4654B938
:1025600000BF502080F31188BFF34F8FBFF36F8FF0
:1025700000BF00BFFEE7BAF1000F01D1206C08B91F
:10258000012000E0002050B900BF502080F31188E6
:10259000BFF34F8FBFF36F8F00BF00BFFEE7022E68
:1025A00002D1E06B012801D1012000E0002050B9E8
:1025B00000BF502080F31188BFF34F8FBFF36F8FA0
:1025C00000BF00BFFEE7FFF7D3FB00BF5021EFF3D2
:1025D000118081F31188BFF34F8FBFF36F8F00BF5E
:1025E0000546A06BE16B884201D3022E25D194F9F8
:1025F00045B0A06B0090324651462046FEF729FEBA
:102600000BF1010088B9606A08B9012000E00020E0
:1026100050B904F1240000F069FA28B1B8F1000FB4
:1026200002D00120C8F8000004E00BF1010040B224
:1026300084F845004FF0010901E04FF0000900BFA8
:1026400085F3118800BF4846BDE8F88F2DE9F741B2
:1026500083B005460E464FF000082C4654B900BF23
:10266000502080F31188BFF34F8FBFF36F8F00BFEF
:1026700000BFFEE70EB9206C08B9012000E0002081
:1026800050B900BF502080F31188BFF34F8FBFF3C4
:102690006F8F00BF00BFFEE700F002F908B9059890
:1026A00008B9012000E0002050B900BF502080F39D
:1026B0001188BFF34F8FBFF36F8F00BF00BFFEE7DE
:1026C00000BFFFF7A7FAA76BF7B131462046FEF728
:1026D000ABFD781EA063206908B9012000E000204E
:1026E00060B904F1100000F001FA38B14FF08050E9
:1026F0002F490860BFF34F8FBFF36F8FFFF7B4FA16
:10270000012006B0BDE8F081059818B9FFF7ACFAD2
:102710000020F6E7B8F1000F04D101A8FFF704FC90
:102720004FF00108FFF7A0FAFFF796FCFFF772FAE7
:1027300094F94400401C10B9002084F8440094F936
:102740004500401C10B9002084F84500FFF78CFAC2
:1027500005A901A800F02EF8F0B92046FEF732FFD7
:10276000A0B104F124000599FFF7F0FB2046FFF724
:1027700004F900F007FA0028A3D14FF080500C496B
:102780000860BFF34F8FBFF36F8F9AE72046FFF7C4
:10279000F4F800F0F7F994E72046FFF7EEF800F0C0
:1027A000F1F92046FEF70EFF00288AD00020A8E7A6
:1027B00004ED00E070B505460C4655B900BF502049
:1027C00080F31188BFF34F8FBFF36F8F00BF00BF3F
:1027D000FEE754B900BF502080F31188BFF34F8F3C
:1027E000BFF36F8F00BF00BFFEE7FFF713FA124879
:1027F00002686868131A2068401C08B9002617E0B0
:102800000E4928680968884204D06868904201D857
:1028100001260DE02068984207D92068C01A206080
:102820002846FFF781FB002602E0002020600126F9
:10283000FFF71AFA304670BD400000205400002017
:102840002DE9FF4F85B0804689461746DDE912AB7A
:10285000B800FFF7D1F8064656B15820FFF7CCF87C
:1028600004460CB1266304E03046FFF71BFA00E093
:1028700000247CB10020CDE900ABCDE902403A460E
:1028800049464046089BFEF7AAFD2046FEF71AFC83
:10289000012501E04FF0FF35284609B0BDE8F08F73
:1028A0000549096809B9012005E00449096809B921
:1028B000022000E000207047480000206400002053
:1028C0000149086870470000400000202DE9F041F0
:1028D0004FF000084848006800287DD1474800684C
:1028E000451C4648056015BB45480068006808B9A6
:1028F000012000E0002050B900BF502080F3118873
:10290000BFF34F8FBFF36F8F00BF00BFFEE73C48A0
:1029100007683C4800683A4908603A4807603A4806
:102920000068401C38490860FEF778FF00BF374850
:10293000006885423CD300BF31480068006808B990
:10294000012000E0002020B14FF0FF302F49086047
:102950002DE02B480068C068C4686668B54202D2A2
:102960002A48066023E0201DFFF706F9A06A18B187
:1029700004F11800FFF700F994F82C1001208840AA
:1029800023490968084322490860E16A01EB810193
:10299000204A02EB8100211DFFF730F91E49E06A51
:1029A0000968C96A8842C7D34FF00108C4E700BF6D
:1029B00019480068C06A00EB8000164951F82000F1
:1029C000012801D94FF001081448006808B9FFF741
:1029D000EAF81348006800E003E008B14FF001088E
:1029E00006E00E480068401C0C490860FFF7DBF861
:1029F0004046BDE8F0810000640000204000002057
:102A00003000002034000020540000205C00002032
:102A100044000020E82C01202C0000204C00002065
:102A20005000002070B505462C460026002D55D0DC
:102A30002B480068844201D1012000E0002050B9F9
:102A400000BF502080F31188BFF34F8FBFF36F8F0B
:102A500000BF00BFFEE7E06C50B900BF502080F31C
:102A60001188BFF34F8FBFF36F8F00BF00BFFEE72A
:102A7000E06C401EE064A16CE06A88422ED0E06CFD
:102A800060BB201DFFF778F878B9E06A00EB8000A2
:102A9000144951F8200040B994F82C1001208840C6
:102AA00011490968814310480160A06CE062E06A46
:102AB000C0F10500A06194F82C10012088400A495B
:102AC0000968084308490860E16A01EB8101054A89
:102AD00002EB8100211DFFF791F80126304670BD01
:102AE0002C000020E82C01204400002070B5064690
:102AF000F068C46854B900BF502080F31188BFF358
:102B00004F8FBFF36F8F00BF00BFFEE704F11800C7
:102B1000FFF732F815480068A8B9201DFFF72CF818
:102B200094F82C1001208840114909680843104985
:102B30000860E16A01EB81010E4A02EB8100211D70
:102B4000FFF75CF804E004F118010B48FFF756F8B2
:102B50000A49E06A0968C96A884204D90125012046
:102B60000749086000E00025284670BD6400002089
:102B700044000020E82C0120742D01202C000020AE
:102B80005000002070B5002400263648006850B977
:102B900000BF502080F31188BFF34F8FBFF36F8FBA
:102BA00000BF00BFFEE7FFF735F82E480068401E63
:102BB0002C4908600846006800284FD12A48006860
:102BC00000284BD024E02948C068C46804F11800EC
:102BD000FEF7D2FF201DFEF7CFFF94F82C10012046
:102BE000884023490968084321490860E16A01EBEC
:102BF0008101204A02EB8100211DFEF7FFFF1E49E3
:102C0000E06A0968C96A884202D301201B4908604A
:102C10001648006808B9012000E000200028D2D042
:102C20000CB1FEF7FBFD1648056865B100BFFFF764
:102C30004DFE10B10120114908606D1E002DF6D126
:102C400000200F4908600D48006838B101263007A0
:102C50000C490860BFF34F8FBFF36F8FFFF704F885
:102C6000304670BD640000203C000020742D01201F
:102C700044000020E82C01202C00002050000020FF
:102C80004C00002004ED00E01CB50024FEF776FAAD
:102C90000E48006858B10E48022100234FF482729A
:102CA000CDE900100BA10D48FFF7CAFD044654B949
:102CB00000BF502080F31188BFF34F8FBFF36F8F99
:102CC00000BF00BFFEE720461CBD000070000020D2
:102CD00074000020546D722053766300611900085F
:102CE0002DE9FE4304460D4616461F46DDF82880B2
:102CF0004FF0000954B900BF502080F31188BFF392
:102D00004F8FBFF36F8F00BF00BFFEE7144800680E
:102D100010B3009501960294062D15DAFFF7C0FD59
:102D2000022808D10023424669460D480068FFF793
:102D30003BFB814610E000231A46694608480068BC
:102D4000FFF732FB814607E000233A466946044814
:102D50000068FFF7FDFB81464846BDE8FE830000A2
:102D6000700000204FF04070E1EE100A7047000044
:102D7000902D000800000020A8000000C4010008F9
:102D8000382E0008A8000020A8330100E001000848
:102D90000000000000000000000000000000000033
:102DA0000000000000000000000000000000000023
:102DB000AAAAAAAA0000000000000000000000006B
:102DC0000000000000000000000000000000000003
:102DD00000000000000000000000000000000000F3
:102DE00000000000000000000000000000000000E3
:102DF00000000000000000000000000000000000D3
:102E0000000000000000000000000000007A030A3B
:102E1000000000000000000001020304060708098A
:102E20000000000000000000000000000102030498
:082E3000010203040607080972
:04000005080002F9F4
:00000001FF
